:100000000C943E000C9450000C9450000C94500042
:100010000C9450000C9450000C9450000C94500020
:100020000C9450000C9450000C9450000C94500010
:100030000C9450000C9450000C9450000C94500000
:100040000C9450000C9450000C9450000C945000F0
:100050000C9452000C9489000C94B1000C94500044
:100060000C9450000C9450000C9450000C945000D0
:100070000C94BB000C94F2000C941A0111241FBEC6
:10008000CFEFD8E0DEBFCDBF15E0A0E0B1E001C00A
:100090001D92AE30B107E1F70E9424010C942C01AF
:1000A0000C9400001F920F920FB60F9211242F9301
:1000B0008F939F93EF93FF93E09106029E2F9F5F94
:1000C000809107029817B1F08091C0008C7149F0BF
:1000D00081E0809301012091C00023FF02C0809342
:1000E00005028091C600F0E0EB5FFE4F80839093A5
:1000F000060205C081E08093010180930502FF9113
:10010000EF919F918F912F910F900FBE0F901F90A5
:1001100018951F920F920FB60F9211248F939F93F1
:10012000EF93FF9380910B0290910D05891759F081
:10013000E82FF0E0E35FFB4F91819093C6008F5F63
:1001400080930B0205C08091C1008F7D8093C10018
:10015000FF91EF919F918F910F900FBE0F901F9085
:1001600018951F920F920FB60F9211240F900FBE89
:100170000F901F9018951F920F920FB60F92112497
:100180002F938F939F93EF93FF93E09103019E2F03
:100190009F5F80910C039817B1F08091C8008C711B
:1001A00049F081E0809304012091C80023FF02C040
:1001B000809308028091CE00F0E0E35FFC4F8083E3
:1001C0009093030105C081E08093040180930802AD
:1001D000FF91EF919F918F912F910F900FBE0F90F4
:1001E0001F9018951F920F920FB60F9211248F93A4
:1001F0009F93EF93FF9380910A02909102018917D8
:1002000059F0E82FF0E0E45FFD4F91819093CE002C
:100210008F5F80930A0205C08091C9008F7D809313
:10022000C900FF91EF919F918F910F900FBE0F909A
:100230001F9018951F920F920FB60F9211240F90D6
:100240000FBE0F901F901895109A209A009B02C025
:0C025000289AFCCF2898FACFF894FFCF32
:00000001FF
